{
  "_format": "hh-sol-artifact-1",
  "contractName": "PonyBreeding",
  "sourceName": "contracts/Pony.sol",
  "abi": [
    {
      "anonymous": false,
      "inputs": [
        {
          "indexed": false,
          "internalType": "address",
          "name": "owner",
          "type": "address"
        },
        {
          "indexed": false,
          "internalType": "address",
          "name": "approved",
          "type": "address"
        },
        {
          "indexed": false,
          "internalType": "uint256",
          "name": "tokenId",
          "type": "uint256"
        }
      ],
      "name": "Approval",
      "type": "event"
    },
    {
      "anonymous": false,
      "inputs": [
        {
          "indexed": false,
          "internalType": "address",
          "name": "owner",
          "type": "address"
        },
        {
          "indexed": false,
          "internalType": "uint256",
          "name": "ponyId",
          "type": "uint256"
        },
        {
          "indexed": false,
          "internalType": "uint256",
          "name": "matronId",
          "type": "uint256"
        },
        {
          "indexed": false,
          "internalType": "uint256",
          "name": "sireId",
          "type": "uint256"
        },
        {
          "components": [
            {
              "components": [
                {
                  "internalType": "uint256",
                  "name": "red",
                  "type": "uint256"
                },
                {
                  "internalType": "uint256",
                  "name": "green",
                  "type": "uint256"
                },
                {
                  "internalType": "uint256",
                  "name": "blue",
                  "type": "uint256"
                }
              ],
              "internalType": "struct Color",
              "name": "body",
              "type": "tuple"
            },
            {
              "components": [
                {
                  "internalType": "uint256",
                  "name": "red",
                  "type": "uint256"
                },
                {
                  "internalType": "uint256",
                  "name": "green",
                  "type": "uint256"
                },
                {
                  "internalType": "uint256",
                  "name": "blue",
                  "type": "uint256"
                }
              ],
              "internalType": "struct Color",
              "name": "hair",
              "type": "tuple"
            },
            {
              "internalType": "uint8",
              "name": "breed",
              "type": "uint8"
            },
            {
              "internalType": "uint8",
              "name": "pattern",
              "type": "uint8"
            }
          ],
          "indexed": false,
          "internalType": "struct Genes",
          "name": "genes",
          "type": "tuple"
        }
      ],
      "name": "Birth",
      "type": "event"
    },
    {
      "anonymous": false,
      "inputs": [
        {
          "indexed": false,
          "internalType": "address",
          "name": "owner",
          "type": "address"
        },
        {
          "indexed": false,
          "internalType": "uint256",
          "name": "matronId",
          "type": "uint256"
        },
        {
          "indexed": false,
          "internalType": "uint256",
          "name": "sireId",
          "type": "uint256"
        },
        {
          "indexed": false,
          "internalType": "uint256",
          "name": "cooldownEndBlock",
          "type": "uint256"
        }
      ],
      "name": "Pregnant",
      "type": "event"
    },
    {
      "anonymous": false,
      "inputs": [
        {
          "indexed": false,
          "internalType": "address",
          "name": "from",
          "type": "address"
        },
        {
          "indexed": false,
          "internalType": "address",
          "name": "to",
          "type": "address"
        },
        {
          "indexed": false,
          "internalType": "uint256",
          "name": "tokenId",
          "type": "uint256"
        }
      ],
      "name": "Transfer",
      "type": "event"
    },
    {
      "inputs": [
        {
          "internalType": "address",
          "name": "_to",
          "type": "address"
        },
        {
          "internalType": "uint256",
          "name": "_tokenId",
          "type": "uint256"
        }
      ],
      "name": "approve",
      "outputs": [],
      "stateMutability": "nonpayable",
      "type": "function"
    },
    {
      "inputs": [
        {
          "internalType": "address",
          "name": "_owner",
          "type": "address"
        }
      ],
      "name": "balanceOf",
      "outputs": [
        {
          "internalType": "uint256",
          "name": "count",
          "type": "uint256"
        }
      ],
      "stateMutability": "view",
      "type": "function"
    },
    {
      "inputs": [
        {
          "internalType": "uint256",
          "name": "_matronId",
          "type": "uint256"
        },
        {
          "internalType": "uint256",
          "name": "_sireId",
          "type": "uint256"
        }
      ],
      "name": "breed",
      "outputs": [],
      "stateMutability": "nonpayable",
      "type": "function"
    },
    {
      "inputs": [
        {
          "internalType": "uint256",
          "name": "_matronId",
          "type": "uint256"
        },
        {
          "internalType": "uint256",
          "name": "_sireId",
          "type": "uint256"
        }
      ],
      "name": "canBreedWith",
      "outputs": [
        {
          "internalType": "bool",
          "name": "",
          "type": "bool"
        }
      ],
      "stateMutability": "view",
      "type": "function"
    },
    {
      "inputs": [
        {
          "internalType": "uint256",
          "name": "",
          "type": "uint256"
        }
      ],
      "name": "cooldowns",
      "outputs": [
        {
          "internalType": "uint32",
          "name": "",
          "type": "uint32"
        }
      ],
      "stateMutability": "view",
      "type": "function"
    },
    {
      "inputs": [
        {
          "internalType": "uint256",
          "name": "red",
          "type": "uint256"
        },
        {
          "internalType": "uint256",
          "name": "blue",
          "type": "uint256"
        },
        {
          "internalType": "uint256",
          "name": "green",
          "type": "uint256"
        },
        {
          "internalType": "address",
          "name": "_owner",
          "type": "address"
        }
      ],
      "name": "createPromoPony",
      "outputs": [],
      "stateMutability": "nonpayable",
      "type": "function"
    },
    {
      "inputs": [
        {
          "internalType": "uint256",
          "name": "_ponyId",
          "type": "uint256"
        }
      ],
      "name": "genderOf",
      "outputs": [
        {
          "internalType": "bool",
          "name": "",
          "type": "bool"
        }
      ],
      "stateMutability": "view",
      "type": "function"
    },
    {
      "inputs": [
        {
          "internalType": "uint256",
          "name": "_id",
          "type": "uint256"
        }
      ],
      "name": "getPony",
      "outputs": [
        {
          "internalType": "bool",
          "name": "isGestating",
          "type": "bool"
        },
        {
          "internalType": "bool",
          "name": "isReady",
          "type": "bool"
        },
        {
          "internalType": "uint256",
          "name": "cooldownIndex",
          "type": "uint256"
        },
        {
          "internalType": "uint256",
          "name": "nextActionAt",
          "type": "uint256"
        },
        {
          "internalType": "uint256",
          "name": "siringWithId",
          "type": "uint256"
        },
        {
          "internalType": "uint256",
          "name": "birthTime",
          "type": "uint256"
        },
        {
          "internalType": "uint256",
          "name": "matronId",
          "type": "uint256"
        },
        {
          "internalType": "uint256",
          "name": "sireId",
          "type": "uint256"
        },
        {
          "internalType": "uint256",
          "name": "generation",
          "type": "uint256"
        },
        {
          "components": [
            {
              "components": [
                {
                  "internalType": "uint256",
                  "name": "red",
                  "type": "uint256"
                },
                {
                  "internalType": "uint256",
                  "name": "green",
                  "type": "uint256"
                },
                {
                  "internalType": "uint256",
                  "name": "blue",
                  "type": "uint256"
                }
              ],
              "internalType": "struct Color",
              "name": "body",
              "type": "tuple"
            },
            {
              "components": [
                {
                  "internalType": "uint256",
                  "name": "red",
                  "type": "uint256"
                },
                {
                  "internalType": "uint256",
                  "name": "green",
                  "type": "uint256"
                },
                {
                  "internalType": "uint256",
                  "name": "blue",
                  "type": "uint256"
                }
              ],
              "internalType": "struct Color",
              "name": "hair",
              "type": "tuple"
            },
            {
              "internalType": "uint8",
              "name": "breed",
              "type": "uint8"
            },
            {
              "internalType": "uint8",
              "name": "pattern",
              "type": "uint8"
            }
          ],
          "internalType": "struct Genes",
          "name": "genes",
          "type": "tuple"
        }
      ],
      "stateMutability": "view",
      "type": "function"
    },
    {
      "inputs": [
        {
          "internalType": "uint256",
          "name": "_matronId",
          "type": "uint256"
        }
      ],
      "name": "giveBirth",
      "outputs": [
        {
          "internalType": "uint256",
          "name": "",
          "type": "uint256"
        }
      ],
      "stateMutability": "nonpayable",
      "type": "function"
    },
    {
      "inputs": [
        {
          "internalType": "uint256",
          "name": "_matronId",
          "type": "uint256"
        }
      ],
      "name": "giveBirthForce",
      "outputs": [
        {
          "internalType": "uint256",
          "name": "",
          "type": "uint256"
        }
      ],
      "stateMutability": "nonpayable",
      "type": "function"
    },
    {
      "inputs": [
        {
          "internalType": "uint256",
          "name": "_ponyId",
          "type": "uint256"
        }
      ],
      "name": "isPregnant",
      "outputs": [
        {
          "internalType": "bool",
          "name": "",
          "type": "bool"
        }
      ],
      "stateMutability": "view",
      "type": "function"
    },
    {
      "inputs": [
        {
          "internalType": "uint256",
          "name": "_ponyId",
          "type": "uint256"
        }
      ],
      "name": "isReadyToBreed",
      "outputs": [
        {
          "internalType": "bool",
          "name": "",
          "type": "bool"
        }
      ],
      "stateMutability": "view",
      "type": "function"
    },
    {
      "inputs": [],
      "name": "name",
      "outputs": [
        {
          "internalType": "string",
          "name": "",
          "type": "string"
        }
      ],
      "stateMutability": "view",
      "type": "function"
    },
    {
      "inputs": [
        {
          "internalType": "uint256",
          "name": "_tokenId",
          "type": "uint256"
        }
      ],
      "name": "ownerOf",
      "outputs": [
        {
          "internalType": "address",
          "name": "owner",
          "type": "address"
        }
      ],
      "stateMutability": "view",
      "type": "function"
    },
    {
      "inputs": [
        {
          "internalType": "uint256",
          "name": "",
          "type": "uint256"
        }
      ],
      "name": "ponyIndexToApproved",
      "outputs": [
        {
          "internalType": "address",
          "name": "",
          "type": "address"
        }
      ],
      "stateMutability": "view",
      "type": "function"
    },
    {
      "inputs": [
        {
          "internalType": "uint256",
          "name": "",
          "type": "uint256"
        }
      ],
      "name": "ponyIndexToOwner",
      "outputs": [
        {
          "internalType": "address",
          "name": "",
          "type": "address"
        }
      ],
      "stateMutability": "view",
      "type": "function"
    },
    {
      "inputs": [],
      "name": "pregnantPonies",
      "outputs": [
        {
          "internalType": "uint256",
          "name": "",
          "type": "uint256"
        }
      ],
      "stateMutability": "view",
      "type": "function"
    },
    {
      "inputs": [],
      "name": "secondsPerBlock",
      "outputs": [
        {
          "internalType": "uint256",
          "name": "",
          "type": "uint256"
        }
      ],
      "stateMutability": "view",
      "type": "function"
    },
    {
      "inputs": [],
      "name": "symbol",
      "outputs": [
        {
          "internalType": "string",
          "name": "",
          "type": "string"
        }
      ],
      "stateMutability": "view",
      "type": "function"
    },
    {
      "inputs": [
        {
          "internalType": "address",
          "name": "_owner",
          "type": "address"
        }
      ],
      "name": "tokensOfOwner",
      "outputs": [
        {
          "internalType": "uint256[]",
          "name": "ownerTokens",
          "type": "uint256[]"
        }
      ],
      "stateMutability": "view",
      "type": "function"
    },
    {
      "inputs": [],
      "name": "totalSupply",
      "outputs": [
        {
          "internalType": "uint256",
          "name": "",
          "type": "uint256"
        }
      ],
      "stateMutability": "view",
      "type": "function"
    },
    {
      "inputs": [
        {
          "internalType": "address",
          "name": "_to",
          "type": "address"
        },
        {
          "internalType": "uint256",
          "name": "_tokenId",
          "type": "uint256"
        }
      ],
      "name": "transfer",
      "outputs": [],
      "stateMutability": "nonpayable",
      "type": "function"
    },
    {
      "inputs": [
        {
          "internalType": "address",
          "name": "_from",
          "type": "address"
        },
        {
          "internalType": "address",
          "name": "_to",
          "type": "address"
        },
        {
          "internalType": "uint256",
          "name": "_tokenId",
          "type": "uint256"
        }
      ],
      "name": "transferFrom",
      "outputs": [],
      "stateMutability": "nonpayable",
      "type": "function"
    }
  ],
  "bytecode": "0x6080604052604051806101c00160405280603c63ffffffff1663ffffffff168152602001607863ffffffff1663ffffffff16815260200161012c63ffffffff1663ffffffff16815260200161025863ffffffff1663ffffffff16815260200161070863ffffffff1663ffffffff168152602001610e1063ffffffff1663ffffffff168152602001611c2063ffffffff1663ffffffff16815260200161384063ffffffff1663ffffffff16815260200161708063ffffffff1663ffffffff16815260200161e10063ffffffff1663ffffffff1681526020016201518063ffffffff1663ffffffff1681526020016202a30063ffffffff1663ffffffff1681526020016205460063ffffffff1663ffffffff16815260200162093a8063ffffffff1663ffffffff16815250600090600e6200013a92919062000154565b50600f6002553480156200014d57600080fd5b506200021d565b82600e600701600890048101928215620001eb5791602002820160005b83821115620001b757835183826101000a81548163ffffffff021916908363ffffffff160217905550926020019260040160208160030104928301926001030262000171565b8015620001e95782816101000a81549063ffffffff0219169055600401602081600301049283019260010302620001b7565b505b509050620001fa9190620001fe565b5090565b5b8082111562000219576000816000905550600101620001ff565b5090565b613414806200022d6000396000f3fe608060405234801561001057600080fd5b506004361061014d5760003560e01c806370a08231116100c35780639d6fac6f1161007c5780639d6fac6f14610409578063a9059cbb14610439578063b637122114610455578063ca130b0b14610485578063d3e6f49f146104a1578063d9ecad7b146104d15761014d565b806370a082311461030d5780637a7d49371461033d5780638462151c1461035b57806388c2a0bf1461038b57806395d89b41146103bb5780639892a871146103d95761014d565b8063304b019011610115578063304b0190146101f657806336917dfa146102145780633b3d99dd1461024d57806346d22c701461027d57806359d71a24146102ad5780636352211e146102dd5761014d565b806306fdde0314610152578063095ea7b31461017057806318160ddd1461018c5780631940a936146101aa57806323b872dd146101da575b600080fd5b61015a6104ed565b6040516101679190613031565b60405180910390f35b61018a60048036038101906101859190612bb9565b610526565b005b610194610582565b6040516101a19190613053565b60405180910390f35b6101c460048036038101906101bf9190612bf5565b61059b565b6040516101d19190612f7a565b60405180910390f35b6101f460048036038101906101ef9190612b6a565b610616565b005b6101fe6106bf565b60405161020b9190613053565b60405180910390f35b61022e60048036038101906102299190612bf5565b6106c5565b6040516102449a99989796959493929190612f95565b60405180910390f35b61026760048036038101906102629190612bf5565b610900565b6040516102749190613053565b60405180910390f35b61029760048036038101906102929190612c1e565b610c5d565b6040516102a49190612f7a565b60405180910390f35b6102c760048036038101906102c29190612bf5565b610d26565b6040516102d49190612e6d565b60405180910390f35b6102f760048036038101906102f29190612bf5565b610d59565b6040516103049190612e6d565b60405180910390f35b61032760048036038101906103229190612b41565b610dd0565b6040516103349190613053565b60405180910390f35b610345610e19565b6040516103529190613053565b60405180910390f35b61037560048036038101906103709190612b41565b610e1f565b6040516103829190612f58565b60405180910390f35b6103a560048036038101906103a09190612bf5565b61101a565b6040516103b29190613053565b60405180910390f35b6103c3611590565b6040516103d09190613031565b60405180910390f35b6103f360048036038101906103ee9190612bf5565b6115c9565b6040516104009190612e6d565b60405180910390f35b610423600480360381019061041e9190612bf5565b6115fc565b604051610430919061306e565b60405180910390f35b610453600480360381019061044e9190612bb9565b61162c565b005b61046f600480360381019061046a9190612bf5565b6116c1565b60405161047c9190612f7a565b60405180910390f35b61049f600480360381019061049a9190612c5a565b61190a565b005b6104bb60048036038101906104b69190612bf5565b611974565b6040516104c89190612f7a565b60405180910390f35b6104eb60048036038101906104e69190612c1e565b611bce565b005b6040518060400160405280600d81526020017f43727970746f4b6974746965730000000000000000000000000000000000000081525081565b61053033826120a0565b61053957600080fd5b610543818361210c565b7f8c5be1e5ebec7d5bd14f71427d1e84f3dd0314c0f7b2291e5b200ac8c7c3b92533838360405161057693929190612e88565b60405180910390a15050565b60006001600380549050610596919061319d565b905090565b60008082116105a957600080fd5b6000600383815481106105e5577f4e487b7100000000000000000000000000000000000000000000000000000000600052603260045260246000fd5b906000526020600020906009020160070160199054906101000a900463ffffffff1663ffffffff1614159050919050565b600073ffffffffffffffffffffffffffffffffffffffff168273ffffffffffffffffffffffffffffffffffffffff16141561065057600080fd5b3073ffffffffffffffffffffffffffffffffffffffff168273ffffffffffffffffffffffffffffffffffffffff16141561068957600080fd5b6106933382612162565b61069c57600080fd5b6106a683826120a0565b6106af57600080fd5b6106ba8383836121ce565b505050565b60075481565b60008060008060008060008060006106db612abc565b600060038c81548110610717577f4e487b7100000000000000000000000000000000000000000000000000000000600052603260045260246000fd5b9060005260206000209060090201905060008160070160199054906101000a900463ffffffff1663ffffffff1614159a50438160070160099054906101000a900467ffffffffffffffff1667ffffffffffffffff161115995080600701601d9054906101000a900461ffff1661ffff1698508060070160099054906101000a900467ffffffffffffffff1667ffffffffffffffff1697508060070160199054906101000a900463ffffffff1663ffffffff1696508060070160019054906101000a900467ffffffffffffffff1667ffffffffffffffff1695508060070160119054906101000a900463ffffffff1663ffffffff1694508060070160159054906101000a900463ffffffff1663ffffffff1693508060080160009054906101000a900461ffff1661ffff16925080600001604051806080016040529081600082016040518060600160405290816000820154815260200160018201548152602001600282015481525050815260200160038201604051806060016040529081600082015481526020016001820154815260200160028201548152505081526020016006820160009054906101000a900460ff1660ff1660ff1681526020016006820160019054906101000a900460ff1660ff1660ff16815250509150509193959799509193959799565b6000806003838154811061093d577f4e487b7100000000000000000000000000000000000000000000000000000000600052603260045260246000fd5b9060005260206000209060090201905060008160070160199054906101000a900463ffffffff1663ffffffff16905060008260070160019054906101000a900467ffffffffffffffff1667ffffffffffffffff16141561099c57600080fd5b60008260070160199054906101000a900463ffffffff1663ffffffff1690506000600382815481106109f7577f4e487b7100000000000000000000000000000000000000000000000000000000600052603260045260246000fd5b9060005260206000209060090201905060008460080160009054906101000a900461ffff1690508460080160009054906101000a900461ffff1661ffff168260080160009054906101000a900461ffff1661ffff161115610a68578160080160009054906101000a900461ffff1690505b60006040518060800160405280610add88600001600001604051806060016040529081600082015481526020016001820154815260200160028201548152505086600001600001604051806060016040529081600082015481526020016001820154815260200160028201548152505061233f565b8152602001610b4a88600001600301604051806060016040529081600082015481526020016001820154815260200160028201548152505086600001600301604051806060016040529081600082015481526020016001820154815260200160028201548152505061233f565b8152602001610b818860000160060160009054906101000a900460ff168660000160060160009054906101000a900460ff166123a3565b60ff168152602001610bbb8860000160060160019054906101000a900460ff168660000160060160019054906101000a900460ff166123a3565b60ff16815250905060006004600087815260200190815260200160002060009054906101000a900473ffffffffffffffffffffffffffffffffffffffff1690506000610c348a8960070160199054906101000a900463ffffffff1663ffffffff16600187610c2991906130de565b61ffff1686866123d2565b90508760070160196101000a81549063ffffffff02191690558098505050505050505050919050565b6000808311610c6b57600080fd5b60008211610c7857600080fd5b600060038481548110610cb4577f4e487b7100000000000000000000000000000000000000000000000000000000600052603260045260246000fd5b90600052602060002090600902019050600060038481548110610d00577f4e487b7100000000000000000000000000000000000000000000000000000000600052603260045260246000fd5b90600052602060002090600902019050610d1c82868387612756565b9250505092915050565b60066020528060005260406000206000915054906101000a900473ffffffffffffffffffffffffffffffffffffffff1681565b60006004600083815260200190815260200160002060009054906101000a900473ffffffffffffffffffffffffffffffffffffffff169050600073ffffffffffffffffffffffffffffffffffffffff168173ffffffffffffffffffffffffffffffffffffffff161415610dcb57600080fd5b919050565b6000600560008373ffffffffffffffffffffffffffffffffffffffff1673ffffffffffffffffffffffffffffffffffffffff168152602001908152602001600020549050919050565b60025481565b60606000610e2c83610dd0565b90506000811415610eaf57600067ffffffffffffffff811115610e78577f4e487b7100000000000000000000000000000000000000000000000000000000600052604160045260246000fd5b604051908082528060200260200182016040528015610ea65781602001602082028036833780820191505090505b50915050611015565b60008167ffffffffffffffff811115610ef1577f4e487b7100000000000000000000000000000000000000000000000000000000600052604160045260246000fd5b604051908082528060200260200182016040528015610f1f5781602001602082028036833780820191505090505b5090506000610f2c610582565b9050600080600190505b82811161100c578673ffffffffffffffffffffffffffffffffffffffff166004600083815260200190815260200160002060009054906101000a900473ffffffffffffffffffffffffffffffffffffffff1673ffffffffffffffffffffffffffffffffffffffff161415610ff95780848381518110610fde577f4e487b7100000000000000000000000000000000000000000000000000000000600052603260045260246000fd5b6020026020010181815250508180610ff5906132c7565b9250505b8080611004906132c7565b915050610f36565b83955050505050505b919050565b60008060038381548110611057577f4e487b7100000000000000000000000000000000000000000000000000000000600052603260045260246000fd5b9060005260206000209060090201905060008160070160199054906101000a900463ffffffff1663ffffffff16905060008260070160019054906101000a900467ffffffffffffffff1667ffffffffffffffff1614156110b657600080fd5b6112ae826040518061012001604052908160008201604051806080016040529081600082016040518060600160405290816000820154815260200160018201548152602001600282015481525050815260200160038201604051806060016040529081600082015481526020016001820154815260200160028201548152505081526020016006820160009054906101000a900460ff1660ff1660ff1681526020016006820160019054906101000a900460ff1660ff1660ff168152505081526020016007820160009054906101000a900460ff161515151581526020016007820160019054906101000a900467ffffffffffffffff1667ffffffffffffffff1667ffffffffffffffff1681526020016007820160099054906101000a900467ffffffffffffffff1667ffffffffffffffff1667ffffffffffffffff1681526020016007820160119054906101000a900463ffffffff1663ffffffff1663ffffffff1681526020016007820160159054906101000a900463ffffffff1663ffffffff1663ffffffff1681526020016007820160199054906101000a900463ffffffff1663ffffffff1663ffffffff16815260200160078201601d9054906101000a900461ffff1661ffff1661ffff1681526020016008820160009054906101000a900461ffff1661ffff1661ffff168152505061279e565b6112b757600080fd5b60008260070160199054906101000a900463ffffffff1663ffffffff169050600060038281548110611312577f4e487b7100000000000000000000000000000000000000000000000000000000600052603260045260246000fd5b9060005260206000209060090201905060008460080160009054906101000a900461ffff1690508460080160009054906101000a900461ffff1661ffff168260080160009054906101000a900461ffff1661ffff161115611383578160080160009054906101000a900461ffff1690505b600060405180608001604052806113f888600001600001604051806060016040529081600082015481526020016001820154815260200160028201548152505086600001600001604051806060016040529081600082015481526020016001820154815260200160028201548152505061233f565b815260200161146588600001600301604051806060016040529081600082015481526020016001820154815260200160028201548152505086600001600301604051806060016040529081600082015481526020016001820154815260200160028201548152505061233f565b815260200161149c8860000160060160009054906101000a900460ff168660000160060160009054906101000a900460ff166123a3565b60ff1681526020016114d68860000160060160019054906101000a900460ff168660000160060160019054906101000a900460ff166123a3565b60ff16815250905060006004600087815260200190815260200160002060009054906101000a900473ffffffffffffffffffffffffffffffffffffffff169050600061154f8a8960070160199054906101000a900463ffffffff1663ffffffff1660018761154491906130de565b61ffff1686866123d2565b90508760070160196101000a81549063ffffffff02191690556007600081548092919061157b9061329d565b91905055508098505050505050505050919050565b6040518060400160405280600281526020017f434b00000000000000000000000000000000000000000000000000000000000081525081565b60046020528060005260406000206000915054906101000a900473ffffffffffffffffffffffffffffffffffffffff1681565b600081600e811061160c57600080fd5b60089182820401919006600402915054906101000a900463ffffffff1681565b600073ffffffffffffffffffffffffffffffffffffffff168273ffffffffffffffffffffffffffffffffffffffff16141561166657600080fd5b3073ffffffffffffffffffffffffffffffffffffffff168273ffffffffffffffffffffffffffffffffffffffff16141561169f57600080fd5b6116a933826120a0565b6116b257600080fd5b6116bd3383836121ce565b5050565b600080600383815481106116fe577f4e487b7100000000000000000000000000000000000000000000000000000000600052603260045260246000fd5b90600052602060002090600902016040518061012001604052908160008201604051806080016040529081600082016040518060600160405290816000820154815260200160018201548152602001600282015481525050815260200160038201604051806060016040529081600082015481526020016001820154815260200160028201548152505081526020016006820160009054906101000a900460ff1660ff1660ff1681526020016006820160019054906101000a900460ff1660ff1660ff168152505081526020016007820160009054906101000a900460ff161515151581526020016007820160019054906101000a900467ffffffffffffffff1667ffffffffffffffff1667ffffffffffffffff1681526020016007820160099054906101000a900467ffffffffffffffff1667ffffffffffffffff1667ffffffffffffffff1681526020016007820160119054906101000a900463ffffffff1663ffffffff1663ffffffff1681526020016007820160159054906101000a900463ffffffff1663ffffffff1663ffffffff1681526020016007820160199054906101000a900463ffffffff1663ffffffff1663ffffffff16815260200160078201601d9054906101000a900461ffff1661ffff1661ffff1681526020016008820160009054906101000a900461ffff1661ffff1661ffff168152505090508060200151915050919050565b60008190506000604051806060016040528087815260200185815260200186815250905060006040518060800160405280838152602001838152602001600160ff168152602001600160ff16815250905061196a600080600084876123d2565b5050505050505050565b600080821161198257600080fd5b6000600383815481106119be577f4e487b7100000000000000000000000000000000000000000000000000000000600052603260045260246000fd5b90600052602060002090600902019050611bc6816040518061012001604052908160008201604051806080016040529081600082016040518060600160405290816000820154815260200160018201548152602001600282015481525050815260200160038201604051806060016040529081600082015481526020016001820154815260200160028201548152505081526020016006820160009054906101000a900460ff1660ff1660ff1681526020016006820160019054906101000a900460ff1660ff1660ff168152505081526020016007820160009054906101000a900460ff161515151581526020016007820160019054906101000a900467ffffffffffffffff1667ffffffffffffffff1667ffffffffffffffff1681526020016007820160099054906101000a900467ffffffffffffffff1667ffffffffffffffff1667ffffffffffffffff1681526020016007820160119054906101000a900463ffffffff1663ffffffff1663ffffffff1681526020016007820160159054906101000a900463ffffffff1663ffffffff1663ffffffff1681526020016007820160199054906101000a900463ffffffff1663ffffffff1663ffffffff16815260200160078201601d9054906101000a900461ffff1661ffff1661ffff1681526020016008820160009054906101000a900461ffff1661ffff1661ffff16815250506127c2565b915050919050565b611bd833836120a0565b611be157600080fd5b600060038381548110611c1d577f4e487b7100000000000000000000000000000000000000000000000000000000600052603260045260246000fd5b90600052602060002090600902019050611e25816040518061012001604052908160008201604051806080016040529081600082016040518060600160405290816000820154815260200160018201548152602001600282015481525050815260200160038201604051806060016040529081600082015481526020016001820154815260200160028201548152505081526020016006820160009054906101000a900460ff1660ff1660ff1681526020016006820160019054906101000a900460ff1660ff1660ff168152505081526020016007820160009054906101000a900460ff161515151581526020016007820160019054906101000a900467ffffffffffffffff1667ffffffffffffffff1667ffffffffffffffff1681526020016007820160099054906101000a900467ffffffffffffffff1667ffffffffffffffff1667ffffffffffffffff1681526020016007820160119054906101000a900463ffffffff1663ffffffff1663ffffffff1681526020016007820160159054906101000a900463ffffffff1663ffffffff1663ffffffff1681526020016007820160199054906101000a900463ffffffff1663ffffffff1663ffffffff16815260200160078201601d9054906101000a900461ffff1661ffff1661ffff1681526020016008820160009054906101000a900461ffff1661ffff1661ffff16815250506127c2565b611e2e57600080fd5b600060038381548110611e6a577f4e487b7100000000000000000000000000000000000000000000000000000000600052603260045260246000fd5b90600052602060002090600902019050612072816040518061012001604052908160008201604051806080016040529081600082016040518060600160405290816000820154815260200160018201548152602001600282015481525050815260200160038201604051806060016040529081600082015481526020016001820154815260200160028201548152505081526020016006820160009054906101000a900460ff1660ff1660ff1681526020016006820160019054906101000a900460ff1660ff1660ff168152505081526020016007820160009054906101000a900460ff161515151581526020016007820160019054906101000a900467ffffffffffffffff1667ffffffffffffffff1667ffffffffffffffff1681526020016007820160099054906101000a900467ffffffffffffffff1667ffffffffffffffff1667ffffffffffffffff1681526020016007820160119054906101000a900463ffffffff1663ffffffff1663ffffffff1681526020016007820160159054906101000a900463ffffffff1663ffffffff1663ffffffff1681526020016007820160199054906101000a900463ffffffff1663ffffffff1663ffffffff16815260200160078201601d9054906101000a900461ffff1661ffff1661ffff1681526020016008820160009054906101000a900461ffff1661ffff1661ffff16815250506127c2565b61207b57600080fd5b61208782858386612756565b61209057600080fd5b61209a84846127fc565b50505050565b60008273ffffffffffffffffffffffffffffffffffffffff166004600084815260200190815260200160002060009054906101000a900473ffffffffffffffffffffffffffffffffffffffff1673ffffffffffffffffffffffffffffffffffffffff1614905092915050565b806006600084815260200190815260200160002060006101000a81548173ffffffffffffffffffffffffffffffffffffffff021916908373ffffffffffffffffffffffffffffffffffffffff1602179055505050565b60008273ffffffffffffffffffffffffffffffffffffffff166006600084815260200190815260200160002060009054906101000a900473ffffffffffffffffffffffffffffffffffffffff1673ffffffffffffffffffffffffffffffffffffffff1614905092915050565b600560008373ffffffffffffffffffffffffffffffffffffffff1673ffffffffffffffffffffffffffffffffffffffff168152602001908152602001600020600081548092919061221e906132c7565b9190505550816004600083815260200190815260200160002060006101000a81548173ffffffffffffffffffffffffffffffffffffffff021916908373ffffffffffffffffffffffffffffffffffffffff160217905550600073ffffffffffffffffffffffffffffffffffffffff168373ffffffffffffffffffffffffffffffffffffffff16146122ff57600560008473ffffffffffffffffffffffffffffffffffffffff1673ffffffffffffffffffffffffffffffffffffffff16815260200190815260200160002060008154809291906122f99061329d565b91905055505b7fddf252ad1be2c89b69c2b068fc378daa952ba7f163c4a11628f55a4df523b3ef83838360405161233293929190612e88565b60405180910390a1505050565b612347612af6565b600060405180606001604052806123668660000151866000015161296f565b815260200161237d8660200151866020015161296f565b81526020016123948660400151866040015161296f565b81525090508091505092915050565b60008060026123b0612991565b6123ba9190613310565b14156123c8578290506123cc565b8190505b92915050565b60008563ffffffff1686146123e657600080fd5b8463ffffffff1685146123f857600080fd5b8361ffff16841461240857600080fd5b6000600285612417919061316c565b9050600d8161ffff16111561242b57600d90505b6000604051806101200160405280868152602001600060026003805490506124539190613310565b14151581526020014267ffffffffffffffff168152602001600067ffffffffffffffff1681526020018963ffffffff1681526020018863ffffffff168152602001600063ffffffff1681526020018361ffff1681526020018761ffff16815250905060038190806001815401808255809150506001900390600052602060002090600902016000909190919091506000820151816000016000820151816000016000820151816000015560208201518160010155604082015181600201555050602082015181600301600082015181600001556020820151816001015560408201518160020155505060408201518160060160006101000a81548160ff021916908360ff16021790555060608201518160060160016101000a81548160ff021916908360ff160217905550505060208201518160070160006101000a81548160ff02191690831515021790555060408201518160070160016101000a81548167ffffffffffffffff021916908367ffffffffffffffff16021790555060608201518160070160096101000a81548167ffffffffffffffff021916908367ffffffffffffffff16021790555060808201518160070160116101000a81548163ffffffff021916908363ffffffff16021790555060a08201518160070160156101000a81548163ffffffff021916908363ffffffff16021790555060c08201518160070160196101000a81548163ffffffff021916908363ffffffff16021790555060e082015181600701601d6101000a81548161ffff021916908361ffff1602179055506101008201518160080160006101000a81548161ffff021916908361ffff1602179055505050600060016003805490506126d0919061319d565b90508063ffffffff1681146126e457600080fd5b7f9f7185dcd132532511761daffedf9d19979f156507c697ba001ec02771dc7c598582846080015163ffffffff168560a0015163ffffffff168660000151604051612733959493929190612ebf565b60405180910390a1612747600086836121ce565b80935050505095945050505050565b6000818414156127695760009050612796565b8260070160009054906101000a900460ff1615158560070160009054906101000a900460ff161515141590505b949350505050565b6000808260c0015163ffffffff16141580156127bb575081602001515b9050919050565b6000808260c0015163ffffffff161480156127f557504367ffffffffffffffff16826060015167ffffffffffffffff1611155b9050919050565b600060038281548110612838577f4e487b7100000000000000000000000000000000000000000000000000000000600052603260045260246000fd5b90600052602060002090600902019050600060038481548110612884577f4e487b7100000000000000000000000000000000000000000000000000000000600052603260045260246000fd5b90600052602060002090600902019050828160070160196101000a81548163ffffffff021916908363ffffffff1602179055506128c0826129a9565b6128c9816129a9565b600760008154809291906128dc906132c7565b91905055507f241ea03ca20251805084d27d4440371c34a0b85ff108f6bb5611248f73818b806004600086815260200190815260200160002060009054906101000a900473ffffffffffffffffffffffffffffffffffffffff1685858460070160099054906101000a900467ffffffffffffffff166040516129619493929190612f13565b60405180910390a150505050565b60006002828461297f9190613116565b612989919061316c565b905092915050565b60006001436129a0919061319d565b4060001c905090565b43600254600083600701601d9054906101000a900461ffff1661ffff16600e81106129fd577f4e487b7100000000000000000000000000000000000000000000000000000000600052603260045260246000fd5b600891828204019190066004029054906101000a900463ffffffff1663ffffffff16612a29919061316c565b612a339190613116565b8160070160096101000a81548167ffffffffffffffff021916908367ffffffffffffffff160217905550600d81600701601d9054906101000a900461ffff1661ffff161015612ab957600181600701601d8282829054906101000a900461ffff16612a9e91906130de565b92506101000a81548161ffff021916908361ffff1602179055505b50565b6040518060800160405280612acf612af6565b8152602001612adc612af6565b8152602001600060ff168152602001600060ff1681525090565b60405180606001604052806000815260200160008152602001600081525090565b600081359050612b26816133b0565b92915050565b600081359050612b3b816133c7565b92915050565b600060208284031215612b5357600080fd5b6000612b6184828501612b17565b91505092915050565b600080600060608486031215612b7f57600080fd5b6000612b8d86828701612b17565b9350506020612b9e86828701612b17565b9250506040612baf86828701612b2c565b9150509250925092565b60008060408385031215612bcc57600080fd5b6000612bda85828601612b17565b9250506020612beb85828601612b2c565b9150509250929050565b600060208284031215612c0757600080fd5b6000612c1584828501612b2c565b91505092915050565b60008060408385031215612c3157600080fd5b6000612c3f85828601612b2c565b9250506020612c5085828601612b2c565b9150509250929050565b60008060008060808587031215612c7057600080fd5b6000612c7e87828801612b2c565b9450506020612c8f87828801612b2c565b9350506040612ca087828801612b2c565b9250506060612cb187828801612b17565b91505092959194509250565b6000612cc98383612e22565b60208301905092915050565b612cde816131d1565b82525050565b6000612cef82613099565b612cf981856130bc565b9350612d0483613089565b8060005b83811015612d35578151612d1c8882612cbd565b9750612d27836130af565b925050600181019050612d08565b5085935050505092915050565b612d4b816131e3565b82525050565b6000612d5c826130a4565b612d6681856130cd565b9350612d7681856020860161326a565b612d7f8161339f565b840191505092915050565b606082016000820151612da06000850182612e22565b506020820151612db36020850182612e22565b506040820151612dc66040850182612e22565b50505050565b61010082016000820151612de36000850182612d8a565b506020820151612df66060850182612d8a565b506040820151612e0960c0850182612e5e565b506060820151612e1c60e0850182612e5e565b50505050565b612e2b8161321d565b82525050565b612e3a8161321d565b82525050565b612e4981613227565b82525050565b612e5881613258565b82525050565b612e678161324b565b82525050565b6000602082019050612e826000830184612cd5565b92915050565b6000606082019050612e9d6000830186612cd5565b612eaa6020830185612cd5565b612eb76040830184612e31565b949350505050565b600061018082019050612ed56000830188612cd5565b612ee26020830187612e31565b612eef6040830186612e31565b612efc6060830185612e31565b612f096080830184612dcc565b9695505050505050565b6000608082019050612f286000830187612cd5565b612f356020830186612e31565b612f426040830185612e31565b612f4f6060830184612e4f565b95945050505050565b60006020820190508181036000830152612f728184612ce4565b905092915050565b6000602082019050612f8f6000830184612d42565b92915050565b600061022082019050612fab600083018d612d42565b612fb8602083018c612d42565b612fc5604083018b612e31565b612fd2606083018a612e31565b612fdf6080830189612e31565b612fec60a0830188612e31565b612ff960c0830187612e31565b61300660e0830186612e31565b613014610100830185612e31565b613022610120830184612dcc565b9b9a5050505050505050505050565b6000602082019050818103600083015261304b8184612d51565b905092915050565b60006020820190506130686000830184612e31565b92915050565b60006020820190506130836000830184612e40565b92915050565b6000819050602082019050919050565b600081519050919050565b600081519050919050565b6000602082019050919050565b600082825260208201905092915050565b600082825260208201905092915050565b60006130e9826131ef565b91506130f4836131ef565b92508261ffff0382111561310b5761310a613341565b5b828201905092915050565b60006131218261321d565b915061312c8361321d565b9250827fffffffffffffffffffffffffffffffffffffffffffffffffffffffffffffffff0382111561316157613160613341565b5b828201905092915050565b60006131778261321d565b91506131828361321d565b92508261319257613191613370565b5b828204905092915050565b60006131a88261321d565b91506131b38361321d565b9250828210156131c6576131c5613341565b5b828203905092915050565b60006131dc826131fd565b9050919050565b60008115159050919050565b600061ffff82169050919050565b600073ffffffffffffffffffffffffffffffffffffffff82169050919050565b6000819050919050565b600063ffffffff82169050919050565b600067ffffffffffffffff82169050919050565b600060ff82169050919050565b600061326382613237565b9050919050565b60005b8381101561328857808201518184015260208101905061326d565b83811115613297576000848401525b50505050565b60006132a88261321d565b915060008214156132bc576132bb613341565b5b600182039050919050565b60006132d28261321d565b91507fffffffffffffffffffffffffffffffffffffffffffffffffffffffffffffffff82141561330557613304613341565b5b600182019050919050565b600061331b8261321d565b91506133268361321d565b92508261333657613335613370565b5b828206905092915050565b7f4e487b7100000000000000000000000000000000000000000000000000000000600052601160045260246000fd5b7f4e487b7100000000000000000000000000000000000000000000000000000000600052601260045260246000fd5b6000601f19601f8301169050919050565b6133b9816131d1565b81146133c457600080fd5b50565b6133d08161321d565b81146133db57600080fd5b5056fea26469706673582212209d10ce21393ace09dcb64c4221dab0747e7010c40dfa6fd3dafc4065da750eec64736f6c63430008040033",
  "linkReferences": {},
  "deployedLinkReferences": {}
}